{
  "contractName": "Auction",
  "abi": [
    {
      "inputs": [],
      "stateMutability": "nonpayable",
      "type": "constructor"
    },
    {
      "anonymous": false,
      "inputs": [
        {
          "indexed": true,
          "internalType": "uint256",
          "name": "favour",
          "type": "uint256"
        },
        {
          "indexed": true,
          "internalType": "address",
          "name": "beneficiary",
          "type": "address"
        }
      ],
      "name": "LogBeneficiaryAdded",
      "type": "event"
    },
    {
      "anonymous": false,
      "inputs": [
        {
          "indexed": true,
          "internalType": "uint256",
          "name": "favour",
          "type": "uint256"
        },
        {
          "indexed": true,
          "internalType": "uint256",
          "name": "payAmount",
          "type": "uint256"
        }
      ],
      "name": "LogFavourAdded",
      "type": "event"
    },
    {
      "anonymous": false,
      "inputs": [
        {
          "indexed": true,
          "internalType": "uint256",
          "name": "i",
          "type": "uint256"
        },
        {
          "indexed": true,
          "internalType": "uint256",
          "name": "idListLength",
          "type": "uint256"
        }
      ],
      "name": "LogUints",
      "type": "event"
    },
    {
      "anonymous": false,
      "inputs": [
        {
          "indexed": true,
          "internalType": "address",
          "name": "previousOwner",
          "type": "address"
        },
        {
          "indexed": true,
          "internalType": "address",
          "name": "newOwner",
          "type": "address"
        }
      ],
      "name": "OwnershipTransferred",
      "type": "event"
    },
    {
      "inputs": [
        {
          "internalType": "uint256",
          "name": "",
          "type": "uint256"
        }
      ],
      "name": "favours",
      "outputs": [
        {
          "internalType": "uint256",
          "name": "favourId",
          "type": "uint256"
        },
        {
          "internalType": "string",
          "name": "description",
          "type": "string"
        },
        {
          "internalType": "uint256",
          "name": "currentPayAmount",
          "type": "uint256"
        },
        {
          "internalType": "enum Auction.State",
          "name": "status",
          "type": "uint8"
        },
        {
          "internalType": "address payable",
          "name": "beneficiary",
          "type": "address"
        },
        {
          "internalType": "string",
          "name": "location",
          "type": "string"
        },
        {
          "internalType": "string",
          "name": "difficulty",
          "type": "string"
        },
        {
          "internalType": "string",
          "name": "time",
          "type": "string"
        },
        {
          "internalType": "string",
          "name": "imgUrl",
          "type": "string"
        },
        {
          "components": [
            {
              "internalType": "uint256",
              "name": "timestamp",
              "type": "uint256"
            },
            {
              "internalType": "uint256",
              "name": "amount",
              "type": "uint256"
            },
            {
              "internalType": "address",
              "name": "from",
              "type": "address"
            },
            {
              "internalType": "enum Auction.PaymentState",
              "name": "paymentStatus",
              "type": "uint8"
            }
          ],
          "internalType": "struct Auction.Payment",
          "name": "latestBeneficiaryPayment",
          "type": "tuple"
        }
      ],
      "stateMutability": "view",
      "type": "function"
    },
    {
      "inputs": [
        {
          "internalType": "uint256",
          "name": "",
          "type": "uint256"
        }
      ],
      "name": "idList",
      "outputs": [
        {
          "internalType": "uint256",
          "name": "",
          "type": "uint256"
        }
      ],
      "stateMutability": "view",
      "type": "function"
    },
    {
      "inputs": [],
      "name": "idListLength",
      "outputs": [
        {
          "internalType": "uint256",
          "name": "",
          "type": "uint256"
        }
      ],
      "stateMutability": "view",
      "type": "function"
    },
    {
      "inputs": [],
      "name": "owner",
      "outputs": [
        {
          "internalType": "address",
          "name": "",
          "type": "address"
        }
      ],
      "stateMutability": "view",
      "type": "function"
    },
    {
      "inputs": [],
      "name": "renounceOwnership",
      "outputs": [],
      "stateMutability": "nonpayable",
      "type": "function"
    },
    {
      "inputs": [
        {
          "internalType": "address",
          "name": "newOwner",
          "type": "address"
        }
      ],
      "name": "transferOwnership",
      "outputs": [],
      "stateMutability": "nonpayable",
      "type": "function"
    },
    {
      "inputs": [
        {
          "internalType": "uint256",
          "name": "_favourId",
          "type": "uint256"
        }
      ],
      "name": "addAsBeneficiary",
      "outputs": [],
      "stateMutability": "payable",
      "type": "function"
    },
    {
      "inputs": [
        {
          "internalType": "uint256",
          "name": "payAmount",
          "type": "uint256"
        },
        {
          "internalType": "string",
          "name": "_description",
          "type": "string"
        },
        {
          "internalType": "string",
          "name": "_location",
          "type": "string"
        },
        {
          "internalType": "string",
          "name": "_difficulty",
          "type": "string"
        },
        {
          "internalType": "string",
          "name": "_time",
          "type": "string"
        },
        {
          "internalType": "string",
          "name": "_imgUrl",
          "type": "string"
        }
      ],
      "name": "addFavour",
      "outputs": [],
      "stateMutability": "nonpayable",
      "type": "function"
    },
    {
      "inputs": [],
      "name": "withdraw",
      "outputs": [],
      "stateMutability": "nonpayable",
      "type": "function"
    }
  ],
  "bytecode": "0x6080604052600060015534801561001557600080fd5b50610044610030610049640100000000026401000000009004565b610051640100000000026401000000009004565b610115565b600033905090565b60008060009054906101000a900473ffffffffffffffffffffffffffffffffffffffff169050816000806101000a81548173ffffffffffffffffffffffffffffffffffffffff021916908373ffffffffffffffffffffffffffffffffffffffff1602179055508173ffffffffffffffffffffffffffffffffffffffff168173ffffffffffffffffffffffffffffffffffffffff167f8be0079c531659141344cd1fd0a4f28419497f9722a3daafe3b4186f6b6457e060405160405180910390a35050565b611c13806101246000396000f3fe6080604052600436106100a3576000357c0100000000000000000000000000000000000000000000000000000000900480636313531f116100765780636313531f1461014a5780636386cd1714610187578063715018a6146101b25780638da5cb5b146101c9578063f2fde38b146101f4576100a3565b8063234a2959146100a85780632b1bc514146100c4578063301dbc0d1461010a5780633ccfd60b14610133575b600080fd5b6100c260048036038101906100bd919061135f565b61021d565b005b3480156100d057600080fd5b506100eb60048036038101906100e6919061135f565b610694565b6040516101019a99989796959493929190611811565b60405180910390f35b34801561011657600080fd5b50610131600480360381019061012c9190611388565b610ab8565b005b34801561013f57600080fd5b50610148610ee4565b005b34801561015657600080fd5b50610171600480360381019061016c919061135f565b610f62565b60405161017e91906117f6565b60405180910390f35b34801561019357600080fd5b5061019c610f86565b6040516101a991906117f6565b60405180910390f35b3480156101be57600080fd5b506101c7610f8c565b005b3480156101d557600080fd5b506101de611014565b6040516101eb919061173b565b60405180910390f35b34801561020057600080fd5b5061021b60048036038101906102169190611336565b61103d565b005b8060006002811115610258577f4e487b7100000000000000000000000000000000000000000000000000000000600052602160045260246000fd5b6004600083815260200190815260200160002060030160009054906101000a900460ff1660028111156102b4577f4e487b7100000000000000000000000000000000000000000000000000000000600052602160045260246000fd5b1480156103235750600073ffffffffffffffffffffffffffffffffffffffff166004600083815260200190815260200160002060030160019054906101000a900473ffffffffffffffffffffffffffffffffffffffff1673ffffffffffffffffffffffffffffffffffffffff16145b610362576040517f08c379a000000000000000000000000000000000000000000000000000000000815260040161035990611776565b60405180910390fd5b81346004600083815260200190815260200160002060020154146103bb576040517f08c379a00000000000000000000000000000000000000000000000000000000081526004016103b2906117b6565b60405180910390fd5b6000600460008581526020019081526020016000209050338160030160016101000a81548173ffffffffffffffffffffffffffffffffffffffff021916908373ffffffffffffffffffffffffffffffffffffffff16021790555060405180608001604052804281526020013481526020013373ffffffffffffffffffffffffffffffffffffffff16815260200160006001811115610482577f4e487b7100000000000000000000000000000000000000000000000000000000600052602160045260246000fd5b81525081600801600082015181600001556020820151816001015560408201518160020160006101000a81548173ffffffffffffffffffffffffffffffffffffffff021916908373ffffffffffffffffffffffffffffffffffffffff16021790555060608201518160020160146101000a81548160ff02191690836001811115610535577f4e487b7100000000000000000000000000000000000000000000000000000000600052602160045260246000fd5b021790555090505060018160030160006101000a81548160ff0219169083600281111561058b577f4e487b7100000000000000000000000000000000000000000000000000000000600052602160045260246000fd5b0217905550600061059a611014565b905060008173ffffffffffffffffffffffffffffffffffffffff16346040516105c290611726565b60006040518083038185875af1925050503d80600081146105ff576040519150601f19603f3d011682016040523d82523d6000602084013e610604565b606091505b5050905080610648576040517f08c379a000000000000000000000000000000000000000000000000000000000815260040161063f90611796565b60405180910390fd5b3373ffffffffffffffffffffffffffffffffffffffff16867fced3b9bfa9cc50645494b20eb201e0080b238c3ece4070fd81c9ad789c5b83df60405160405180910390a3505050505050565b60046020528060005260406000206000915090508060000154908060010180546106bd90611a88565b80601f01602080910402602001604051908101604052809291908181526020018280546106e990611a88565b80156107365780601f1061070b57610100808354040283529160200191610736565b820191906000526020600020905b81548152906001019060200180831161071957829003601f168201915b5050505050908060020154908060030160009054906101000a900460ff16908060030160019054906101000a900473ffffffffffffffffffffffffffffffffffffffff169080600401805461078a90611a88565b80601f01602080910402602001604051908101604052809291908181526020018280546107b690611a88565b80156108035780601f106107d857610100808354040283529160200191610803565b820191906000526020600020905b8154815290600101906020018083116107e657829003601f168201915b50505050509080600501805461081890611a88565b80601f016020809104026020016040519081016040528092919081815260200182805461084490611a88565b80156108915780601f1061086657610100808354040283529160200191610891565b820191906000526020600020905b81548152906001019060200180831161087457829003601f168201915b5050505050908060060180546108a690611a88565b80601f01602080910402602001604051908101604052809291908181526020018280546108d290611a88565b801561091f5780601f106108f45761010080835404028352916020019161091f565b820191906000526020600020905b81548152906001019060200180831161090257829003601f168201915b50505050509080600701805461093490611a88565b80601f016020809104026020016040519081016040528092919081815260200182805461096090611a88565b80156109ad5780601f10610982576101008083540402835291602001916109ad565b820191906000526020600020905b81548152906001019060200180831161099057829003601f168201915b5050505050908060080160405180608001604052908160008201548152602001600182015481526020016002820160009054906101000a900473ffffffffffffffffffffffffffffffffffffffff1673ffffffffffffffffffffffffffffffffffffffff1673ffffffffffffffffffffffffffffffffffffffff1681526020016002820160149054906101000a900460ff166001811115610a77577f4e487b7100000000000000000000000000000000000000000000000000000000600052602160045260246000fd5b6001811115610aaf577f4e487b7100000000000000000000000000000000000000000000000000000000600052602160045260246000fd5b8152505090508a565b610ac0611135565b73ffffffffffffffffffffffffffffffffffffffff16610ade611014565b73ffffffffffffffffffffffffffffffffffffffff1614610b34576040517f08c379a0000000000000000000000000000000000000000000000000000000008152600401610b2b906117d6565b60405180910390fd5b600060018054610b449190611958565b9050600060405180610140016040528083815260200188815260200189815260200160006002811115610ba0577f4e487b7100000000000000000000000000000000000000000000000000000000600052602160045260246000fd5b8152602001600073ffffffffffffffffffffffffffffffffffffffff168152602001878152602001868152602001858152602001848152602001604051806080016040528042815260200160008152602001600073ffffffffffffffffffffffffffffffffffffffff16815260200160006001811115610c49577f4e487b7100000000000000000000000000000000000000000000000000000000600052602160045260246000fd5b8152508152509050816001819055506002829080600181540180825580915050600190039060005260206000200160009091909190915055600280549050600381905550806004600083600001518152602001908152602001600020600082015181600001556020820151816001019080519060200190610ccb929190611201565b506040820151816002015560608201518160030160006101000a81548160ff02191690836002811115610d27577f4e487b7100000000000000000000000000000000000000000000000000000000600052602160045260246000fd5b021790555060808201518160030160016101000a81548173ffffffffffffffffffffffffffffffffffffffff021916908373ffffffffffffffffffffffffffffffffffffffff16021790555060a0820151816004019080519060200190610d8f929190611201565b5060c0820151816005019080519060200190610dac929190611201565b5060e0820151816006019080519060200190610dc9929190611201565b50610100820151816007019080519060200190610de7929190611201565b5061012082015181600801600082015181600001556020820151816001015560408201518160020160006101000a81548173ffffffffffffffffffffffffffffffffffffffff021916908373ffffffffffffffffffffffffffffffffffffffff16021790555060608201518160020160146101000a81548160ff02191690836001811115610e9e577f4e487b7100000000000000000000000000000000000000000000000000000000600052602160045260246000fd5b021790555050509050508781600001517fb78f18c7b2e81fd05f5062441710ec861ed40b739750219e8beecf566d8a8b9760405160405180910390a35050505050505050565b610eec611135565b73ffffffffffffffffffffffffffffffffffffffff16610f0a611014565b73ffffffffffffffffffffffffffffffffffffffff1614610f60576040517f08c379a0000000000000000000000000000000000000000000000000000000008152600401610f57906117d6565b60405180910390fd5b565b60028181548110610f7257600080fd5b906000526020600020016000915090505481565b60035481565b610f94611135565b73ffffffffffffffffffffffffffffffffffffffff16610fb2611014565b73ffffffffffffffffffffffffffffffffffffffff1614611008576040517f08c379a0000000000000000000000000000000000000000000000000000000008152600401610fff906117d6565b60405180910390fd5b611012600061113d565b565b60008060009054906101000a900473ffffffffffffffffffffffffffffffffffffffff16905090565b611045611135565b73ffffffffffffffffffffffffffffffffffffffff16611063611014565b73ffffffffffffffffffffffffffffffffffffffff16146110b9576040517f08c379a00000000000000000000000000000000000000000000000000000000081526004016110b0906117d6565b60405180910390fd5b600073ffffffffffffffffffffffffffffffffffffffff168173ffffffffffffffffffffffffffffffffffffffff161415611129576040517f08c379a000000000000000000000000000000000000000000000000000000000815260040161112090611756565b60405180910390fd5b6111328161113d565b50565b600033905090565b60008060009054906101000a900473ffffffffffffffffffffffffffffffffffffffff169050816000806101000a81548173ffffffffffffffffffffffffffffffffffffffff021916908373ffffffffffffffffffffffffffffffffffffffff1602179055508173ffffffffffffffffffffffffffffffffffffffff168173ffffffffffffffffffffffffffffffffffffffff167f8be0079c531659141344cd1fd0a4f28419497f9722a3daafe3b4186f6b6457e060405160405180910390a35050565b82805461120d90611a88565b90600052602060002090601f01602090048101928261122f5760008555611276565b82601f1061124857805160ff1916838001178555611276565b82800160010185558215611276579182015b8281111561127557825182559160200191906001019061125a565b5b5090506112839190611287565b5090565b5b808211156112a0576000816000905550600101611288565b5090565b60006112b76112b284611901565b6118d0565b9050828152602081018484840111156112cf57600080fd5b6112da848285611a46565b509392505050565b6000813590506112f181611baf565b92915050565b600082601f83011261130857600080fd5b81356113188482602086016112a4565b91505092915050565b60008135905061133081611bc6565b92915050565b60006020828403121561134857600080fd5b6000611356848285016112e2565b91505092915050565b60006020828403121561137157600080fd5b600061137f84828501611321565b91505092915050565b60008060008060008060c087890312156113a157600080fd5b60006113af89828a01611321565b965050602087013567ffffffffffffffff8111156113cc57600080fd5b6113d889828a016112f7565b955050604087013567ffffffffffffffff8111156113f557600080fd5b61140189828a016112f7565b945050606087013567ffffffffffffffff81111561141e57600080fd5b61142a89828a016112f7565b935050608087013567ffffffffffffffff81111561144757600080fd5b61145389828a016112f7565b92505060a087013567ffffffffffffffff81111561147057600080fd5b61147c89828a016112f7565b9150509295509295509295565b611492816119c0565b82525050565b6114a1816119ae565b82525050565b6114b0816119ae565b82525050565b6114bf81611a22565b82525050565b6114ce81611a34565b82525050565b60006114df82611931565b6114e98185611947565b93506114f9818560208601611a55565b61150281611b76565b840191505092915050565b600061151a602683611947565b91507f4f776e61626c653a206e6577206f776e657220697320746865207a65726f206160008301527f64647265737300000000000000000000000000000000000000000000000000006020830152604082019050919050565b6000611580601d83611947565b91507f54686973206661766f7572206973206e6f7420617661696c61626c652e0000006000830152602082019050919050565b60006115c0602683611947565b91507f416464696e6720612062656e656669636961727920746f206661766f7572206660008301527f61696c65642e00000000000000000000000000000000000000000000000000006020830152604082019050919050565b6000611626601883611947565b91507f506c656173652070617920657861637420616d6f756e742e00000000000000006000830152602082019050919050565b6000611666602083611947565b91507f4f776e61626c653a2063616c6c6572206973206e6f7420746865206f776e65726000830152602082019050919050565b60006116a660008361193c565b9150600082019050919050565b6080820160008201516116c96000850182611708565b5060208201516116dc6020850182611708565b5060408201516116ef6040850182611498565b50606082015161170260608501826114b6565b50505050565b61171181611a18565b82525050565b61172081611a18565b82525050565b600061173182611699565b9150819050919050565b600060208201905061175060008301846114a7565b92915050565b6000602082019050818103600083015261176f8161150d565b9050919050565b6000602082019050818103600083015261178f81611573565b9050919050565b600060208201905081810360008301526117af816115b3565b9050919050565b600060208201905081810360008301526117cf81611619565b9050919050565b600060208201905081810360008301526117ef81611659565b9050919050565b600060208201905061180b6000830184611717565b92915050565b60006101a082019050611827600083018d611717565b8181036020830152611839818c6114d4565b9050611848604083018b611717565b611855606083018a6114c5565b6118626080830189611489565b81810360a083015261187481886114d4565b905081810360c083015261188881876114d4565b905081810360e083015261189c81866114d4565b90508181036101008301526118b181856114d4565b90506118c16101208301846116b3565b9b9a5050505050505050505050565b6000604051905081810181811067ffffffffffffffff821117156118f7576118f6611b47565b5b8060405250919050565b600067ffffffffffffffff82111561191c5761191b611b47565b5b601f19601f8301169050602081019050919050565b600081519050919050565b600081905092915050565b600082825260208201905092915050565b600061196382611a18565b915061196e83611a18565b9250827fffffffffffffffffffffffffffffffffffffffffffffffffffffffffffffffff038211156119a3576119a2611aba565b5b828201905092915050565b60006119b9826119f8565b9050919050565b60006119cb826119f8565b9050919050565b60008190506119e082611b87565b919050565b60008190506119f382611b9b565b919050565b600073ffffffffffffffffffffffffffffffffffffffff82169050919050565b6000819050919050565b6000611a2d826119d2565b9050919050565b6000611a3f826119e5565b9050919050565b82818337600083830152505050565b60005b83811015611a73578082015181840152602081019050611a58565b83811115611a82576000848401525b50505050565b60006002820490506001821680611aa057607f821691505b60208210811415611ab457611ab3611b18565b5b50919050565b7f4e487b7100000000000000000000000000000000000000000000000000000000600052601160045260246000fd5b7f4e487b7100000000000000000000000000000000000000000000000000000000600052602160045260246000fd5b7f4e487b7100000000000000000000000000000000000000000000000000000000600052602260045260246000fd5b7f4e487b7100000000000000000000000000000000000000000000000000000000600052604160045260246000fd5b6000601f19601f8301169050919050565b60028110611b9857611b97611ae9565b5b50565b60038110611bac57611bab611ae9565b5b50565b611bb8816119ae565b8114611bc357600080fd5b50565b611bcf81611a18565b8114611bda57600080fd5b5056fea26469706673582212204a6593cafd749007292544d16f0d3019994d9cce66ec8a10d530fac8a59a5f3864736f6c63430008000033",
  "immutableReferences": {},
  "source": "// SPDX-License-Identifier: MIT\npragma solidity 0.8.0;\n\nimport \"@openzeppelin/contracts/access/Ownable.sol\";\n\n//// @title A community Auction\n//// @author Philipp Neubauer\n//// @notice This contract is the MVP - potentially to be developed further\n//// @dev All functions are currently implemented without side effects\n//// @custom This is an experimental contract for testing purposes\ncontract Auction is Ownable {\n\n\n  // when a beneficiary pays for a favour\n  event LogBeneficiaryAdded(uint indexed favour, address indexed beneficiary);\n\n  // when a new favour is added\n  event LogFavourAdded(uint indexed favour, uint indexed payAmount);\n\n  event LogUints(uint indexed i, uint indexed idListLength);\n\n  /// @dev Tracks given favour ids. Current value is the newest favour id.\n  uint private favourIdCounter = 0;\n\n  enum State{ Available, Consumed, NotAvailable }\n  enum PaymentState{ Success, NoSuccess }\n\n  struct Favour {\n    uint favourId;\n    string description;\n    uint currentPayAmount;\n    State status;\n    address payable beneficiary;\n    string location;\n    string difficulty;\n    string time;\n    string imgUrl;\n    Payment latestBeneficiaryPayment;\n  }\n\n  struct Payment {\n    uint timestamp;\n    uint amount;\n    address from;\n    PaymentState paymentStatus;\n  }\n\n/// @notice List of all favours ids.\n  /// @dev Used as a helper when iterating available favours.\n  uint[] public idList;\n\n  /// @notice idList length.\n  /// @dev Used as a helper when iterating available favours.\n  uint public idListLength;\n\n  mapping (uint => Favour) public favours;\n\n  modifier isAvailable(uint id) {\n    require(favours[id].status == State.Available && favours[id].beneficiary == address(0), \"This favour is not available.\");\n    _;\n  }\n\n  modifier isExactPayment(uint id) {\n    require(favours[id].currentPayAmount == msg.value, \"Please pay exact amount.\");\n    _;\n  }\n\n  constructor() {}\n\n  /// @notice Adds a beneficiary to a given favour id\n  /// @param _favourId Favour to which the sender address is added as a beneficiary\n  /// @dev Check for exact payment sum to avoid having to send ETH back to sender\n  function addAsBeneficiary(uint _favourId)\n    public\n    payable\n    isAvailable(_favourId)\n    isExactPayment(_favourId) {\n      Favour storage _f = favours[_favourId];\n      _f.beneficiary = payable(msg.sender);\n      _f.latestBeneficiaryPayment = Payment({ timestamp: block.timestamp, amount: msg.value, from: msg.sender, paymentStatus: PaymentState.Success });\n      _f.status = State.Consumed;\n      address communityMember = owner();\n      (bool success, ) = communityMember.call{ value: msg.value }(\"\");\n      require(success, \"Adding a beneficiary to favour failed.\");\n      emit LogBeneficiaryAdded(_favourId, msg.sender);\n    }\n\n  //// @notice Adds a favour listing into contract state\n  //// @param payAmount Listing a favour's amount in gwei\n  //// @param _description Short description of favour\n  //// @param _location Location at home as a string, e.g. Kitchen or Bathroom\n  //// @param _difficulty Subjective evaluation of a favour's difficulty\n  //// @param _time Estimated time to complete the favour\n  //// @param _imgUrl Url to an image of listing to be displayed in the web app.\n  \n  function addFavour(\n    uint payAmount,\n    string memory _description,\n    string memory _location,\n    string memory _difficulty,\n    string memory _time,\n    string memory _imgUrl) public onlyOwner {\n      uint newFavourId = favourIdCounter + 1;\n\n      Favour memory newFavour = Favour({\n        favourId: newFavourId,\n        description: _description,\n        currentPayAmount: payAmount,\n        status: State.Available,\n        beneficiary: payable(address(0)),\n        location: _location,\n        difficulty: _difficulty,\n        time: _time,\n        imgUrl: _imgUrl,\n        latestBeneficiaryPayment: Payment({\n          timestamp: block.timestamp,\n          from: address(0),\n          amount: 0,\n          paymentStatus: PaymentState.Success\n        })\n      });\n\n      favourIdCounter = newFavourId;\n      idList.push(newFavourId);\n      idListLength = idList.length;\n      favours[newFavour.favourId] = newFavour;\n      emit LogFavourAdded(newFavour.favourId, payAmount); \n  }\n\n/************ For future development ****************/\n\n  /// @notice Remove a favour\n  /// @param _id favour/listing id\n  /// @dev This function may only be called by the owner\n  function removeFavour(uint _id) private onlyOwner {\n    // TODO: remove a listing entirely\n    // delete favours[_id];\n    // TODO: remove _id from idList\n  }\n\n/// @notice A function for the potential withdrawal of contract funds\n  /// @dev This function may only be called by the contract owner\n  function removeBeneficiary(uint _id) private onlyOwner{\n  }\n\n  /// @notice A function for the potential withdrawal of contract funds\n  /// @dev This function may only be called by the contract owner\n  function withdraw() public onlyOwner {\n    // TODO: withdraw any funds from contract\n  }\n\n}\n",
  "sourcePath": "/Users/Philipp/github/blockchain-developer-bootcamp-final-project/contracts/Auction.sol",
  "compiler": {
    "name": "solc",
    "version": "0.8.0+commit.c7dfd78e.Emscripten.clang"
  },
  "schemaVersion": "3.4.4",
  "updatedAt": "2022-01-15T18:00:54.685Z",
  "devdoc": {
    "kind": "dev",
    "methods": {
      "addAsBeneficiary(uint256)": {
        "details": "Check for exact payment sum to avoid having to send ETH back to sender",
        "params": {
          "_favourId": "Favour to which the sender address is added as a beneficiary"
        }
      },
      "owner()": {
        "details": "Returns the address of the current owner."
      },
      "renounceOwnership()": {
        "details": "Leaves the contract without owner. It will not be possible to call `onlyOwner` functions anymore. Can only be called by the current owner. NOTE: Renouncing ownership will leave the contract without an owner, thereby removing any functionality that is only available to the owner."
      },
      "transferOwnership(address)": {
        "details": "Transfers ownership of the contract to a new account (`newOwner`). Can only be called by the current owner."
      },
      "withdraw()": {
        "details": "This function may only be called by the contract owner"
      }
    },
    "stateVariables": {
      "favourIdCounter": {
        "details": "Tracks given favour ids. Current value is the newest favour id."
      },
      "idList": {
        "details": "Used as a helper when iterating available favours."
      },
      "idListLength": {
        "details": "Used as a helper when iterating available favours."
      }
    },
    "version": 1
  },
  "userdoc": {
    "kind": "user",
    "methods": {
      "addAsBeneficiary(uint256)": {
        "notice": "Adds a beneficiary to a given favour id"
      },
      "idList(uint256)": {
        "notice": "List of all favours ids."
      },
      "idListLength()": {
        "notice": "idList length."
      },
      "withdraw()": {
        "notice": "A function for the potential withdrawal of contract funds"
      }
    },
    "version": 1
  }
}